:1003E1001203FF12000E1203CE1203F21200038059
:0103F100FE0D
:10037B00021A0028021800500808000000000000B4
:10038B000000011000021100000213000002150012
:04039B000001170046
:0B03FF0043BA8090FE00E4F0A3F0225F
:0D000E005391FD43920253B1DF43B2202213
:0700030075E68475E70F228A
:10001E00200103020162C201E5E630E017C3E526C6
:10002E009450E52564809480501F0526E5267019AE
:10003E0005258015D3E5269400E52564809480403F
:10004E0008E526152670021525E51025E02408F88A
:10005E00A62508A6260510E510C394047480948086
:10006E004037E4F510F513F514FFEFC394047480D4
:10007E0094805016EF25E02408F8E6FC08E62514D7
:10008E00F514EC3513F5130F80E0AE13AF147C00AE
:10009E007D041201EF8E138F14E51624FEFFE51575
:1000AE0034FFFEC3E5149FEE6480F8E51364809878
:1000BE00401BE5162402FFE43515FED3E5149FEE32
:1000CE006480F8E513648098500302015D0512E523
:1000DE001270020511C394F4E51194014076E4F513
:1000EE0011F512D3E514940AE51364809480500838
:1000FE00751A00751B058050D3E5149419E5136429
:10010E008094805008751A00751B04803BD3E5144B
:10011E009428E513648094805008751A00751B03AB
:10012E008026D3E5149437E51364809480500875C7
:10013E001A00751B028011D3E5149441E5136480F7
:10014E009480751A00751B0185131585141622E40B
:04015E00F511F51290
:01016200227A
:10027A0030026DC2020517C3E51794037480948097
:10028A00405EE4F517D3E51B9450E51A6480948028
:10029A004008751A00751B508013C3E51B9401E5CD
:1002AA001A648094805006751A00751B01C3E528EC
:1002BA00951BE51A6480F8E527648098500905289B
:1002CA00E528701C052722D3E528951BE51A6480CA
:1002DA00F8E5276480984008E52815287002152754
:0102EA0022F1
:10039F00C101C102C100022700020225002802216B
:0603AF0000000223000023
:1002EB000522E52270020521E52845277003C291FE
:1002FB0022E528640545277003D29122C3E5229598
:10030B0028E5276480F8E5216480985003D2912278
:10031B00C3E5229405E521648094805003C29122A9
:07032B00E4F521F522D29157
:0103320022A8
:100333000524E52470020523E52645257003C2B58F
:1003430022E526645045257003D2B522C3E52495E2
:1003530026E5256480F8E5236480985003D2B5220E
:10036300C3E5249450E523648094805003C2B522EE
:07037300E4F523F524D2B5E7
:01037A002260
:03000B000203B637
:1003B600C0E0C0D075D000C0001203331202EBD2E9
:0803C60000D000D0D0D0E032DD
:03001B0002040AD2
:05040A00D201D2023214
:1003CE004389025389FE758AEC758CECD28CD2A9C6
:0303DE00D2AF2279
:0D03F200758BE0758DB1D28ED2ABD2AF22EB
:0300000002016397
:0C016300787FE4F6D8FD7581280201AA1F
:1001EF00C2D5EC30E709B2D5E4C39DFDE49CFCEE2B
:1001FF0030E715B2D5E4C39FFFE49EFE120225C37C
:10020F00E49DFDE49CFC800312022530D507C3E476
:06021F009FFFE49EFE2299
:10016F000203E1E493A3F8E493A34003F68001F2C2
:10017F0008DFF48029E493A3F85407240CC8C33391
:10018F00C4540F4420C8834004F456800146F6DF60
:10019F00E4800B010204081020408090037BE47E72
:1001AF00019360BCA3FF543F30E509541FFEE49355
:1001BF00A360010ECF54C025E060A840B8E493A31C
:1001CF00FAE493A3F8E493A3C8C582C8CAC583CA47
:1001DF00F0A3C8C582C8CAC583CADFE9DEE780BEFF
:0103B5000047
:10022500BC000BBE0029EF8DF084FFADF022E4CCBD
:10023500F875F008EF2FFFEE33FEEC33FCEE9DEC86
:10024500984005FCEE9DFE0FD5F0E9E4CEFD22EDCC
:10025500F8F5F0EE8420D21CFEADF075F008EF2F16
:10026500FFED33FD4007985006D5F0F222C398FD07
:050275000FD5F0EA22A4
:00000001FF
