:1003A9001203E012000E1203C01203D3120003124B
:0703B900001E12025580F83E
:10035600021A0028021800500808000000000000D9
:100366000000011000021100000213000002150037
:04037600000117006B
:0B03E00043BA8090FE00E4F0A3F0227E
:0D000E005391FD43920253B1DF43B2202213
:0700030075E68475E70F228A
:10001E0020010302012BC201E5E630E017C3E526FD
:10002E009450E52564809480501F0526E5267019AE
:10003E0005258015D3E5269400E52564809480403F
:10004E0008E526152670021525E51025E02408F88A
:10005E00A62508A6260510E510C394047480948086
:10006E004037E4F510F513F514FFEFC394047480D4
:10007E0094805016EF25E02408F8E6FC08E62514D7
:10008E00F514EC3513F5130F80E0AE13AF147C00AE
:10009E007D0412013E8E138F14E51624FEFFE51526
:1000AE0034FFFEC3E5149FEE6480F8E51364809878
:1000BE004018E5162402FFE43515FED3E5149FEE35
:1000CE006480F8E513648098404E0512E5127002C4
:1000DE000511C394F4E51194014042E4F511F512B3
:1000EE00D3E5149405E513648094805008751A00C6
:1000FE00751B32801CAE13AF147C007D0312012CD5
:10010E00C374C89FFFE49EFE7D0A12013E8E1A8FB5
:0D011E001B85131585141622E4F511F5124A
:01012B0022B1
:1002550030026DC2020517C3E517940374809480BC
:10026500405EE4F517D3E51B9450E51A648094804D
:100275004008751A00751B508013C3E51B9401E5F2
:100285001A648094805006751A00751B01C3E52811
:10029500951BE51A6480F8E52764809850090528C0
:1002A500E528701C052722D3E528951BE51A6480EF
:1002B500F8E5276480984008E52815287002152779
:0102C5002216
:10037A00C101C102C1000227003C02250028022156
:06038A0000000223000048
:1002C6000522E52270020521E52845277003C29123
:1002D60022E528645045277003D29122C3E5229572
:1002E60028E5276480F8E5216480985003D291229E
:1002F600C3E5229450E521648094805003C2912284
:07030600E4F521F522D2917C
:01030D0022CD
:10030E000524E52470020523E52645257003C2B5B4
:10031E0022E526645045257003D2B522C3E5249507
:10032E0026E5256480F8E5236480985003D2B52233
:10033E00C3E5249450E523648094805003C2B52213
:07034E00E4F523F524D2B50C
:010355002285
:03000B000203915C
:10039100C0E0C0D075D000C00012030E1202C6D258
:0803A10000D000D0D0D0E03202
:03001B000203EBF2
:0503EB00D201D2023234
:1003C0004389025389FE758AEC758CECD28CD2A9D4
:0303D000D2AF2287
:0D03D300758BE0758DB1D28ED2ABD2AF220A
:030000000201C931
:0C01C900787FE4F6D8FD75812802021052
:10012C00EF8DF0A4A8F0CF8CF0A428CE8DF0A42EE7
:02013C00FE22A1
:10013E00C2D5EC30E709B2D5E4C39DFDE49CFCEEDC
:10014E0030E715B2D5E4C39FFFE49EFE120174C3DF
:10015E00E49DFDE49CFC800312017430D507C3E4DA
:06016E009FFFE49EFE224B
:1001D5000203A9E493A3F8E493A34003F68001F294
:1001E50008DFF48029E493A3F85407240CC8C3332B
:1001F500C4540F4420C8834004F456800146F6DFFA
:10020500E4800B0102040810204080900356E47E30
:10021500019360BCA3FF543F30E509541FFEE493EE
:10022500A360010ECF54C025E060A840B8E493A3B5
:10023500FAE493A3F8E493A3C8C582C8CAC583CAE0
:10024500F0A3C8C582C8CAC583CADFE9DEE780BE98
:01039000006C
:10017400BC000BBE0029EF8DF084FFADF022E4CC6F
:10018400F875F008EF2FFFEE33FEEC33FCEE9DEC38
:10019400984005FCEE9DFE0FD5F0E9E4CEFD22ED7E
:1001A400F8F5F0EE8420D21CFEADF075F008EF2FC8
:1001B400FFED33FD4007985006D5F0F222C398FDB9
:0501C4000FD5F0EA2256
:00000001FF
