:0B08D200706F7765725F6F6E0D0A009B
:10082A001208B312000E12088CD2AC1208A01208D9
:10083A00C51208DD7BFF7A0879D212084F120382AB
:05084A0012068580F894
:10079D0068656172745F3530306D730D0A00636D7D
:1007AD00705F70776D5F64757479203D2025640DE1
:1007BD000A0073637265656E5F70776D5F64757443
:0907CD0079203D2025640D0A008D
:10075D000237000F02350028C10C082200000000EE
:10076D0000000000012A00022B0000022D000002F3
:09077D002F0000013100013200DF
:1008B30043BA8090FE00E4F0A3F090FE02E030E043
:0208C300F92218
:0D000E005391FD43920253B1DF43B2202213
:0708DD0075E68475E70F22A8
:030023000207D6FB
:1007D600C0E0C0D075D000C000C007309904C299EF
:1007E600C20C30980FC298AF34053474392FF8A66E
:0D07F6009953340FD007D000D0D0D0E0329E
:10088C0075985075D7CC75D6FF758E15E4F534F583
:04089C0033C20C2235
:08000300200CFDD20C8F9922A4
:10084F008B098A0A890BAB09AA0AA90B1204CE607D
:10085F0013050BE50B7002050A14F91204CEFF12F3
:05086F00000380E222FD
:10038200E4F508200A030204CDC20A0531C3E531AF
:10039200943274809480402AE4F5317BFF7A0779A5
:1003A2009D12084F7BFF7A0779AB854D0C854E0D68
:1003B2001200887BFF7A0779BF854F0C85500D129A
:1003C2000088E5E630E017C3E54E94C8E54D648049
:1003D2009480501F054EE54E7019054D8015D3E5EA
:1003E2004E9400E54D648094804008E54E154E70B1
:1003F20002154DE52A25E02422F8A64D08A64E0551
:100402002AC3E52A940474809480403BE4F52AF5DB
:100412002DF52EF508C3E5089404748094805018D5
:10042200E50825E02422F8E6FE08E6252EF52EEE64
:10043200352DF52D050880DDAE2DAF2E7C007D0417
:1004420012054E8E2D8F2EE53024FFFFE52F34FF4F
:10045200FEC3E52E9FEE6480F8E52D648098401877
:10046200E5302401FFE4352FFED3E52E9FEE6480B4
:10047200F8E52D648098404E052CE52C7002052B82
:10048200C394F4E52B94014042E4F52BF52CD3E51B
:100492002E940AE52D64809480AE2DAF2E7C005000
:1004A2000A7D111204E7C374C8800D7D1E1204E791
:1004B2007DC81204F9C3741E9FF538E49EF5378592
:0B04C2002D2F852E3022E4F52BF52CA9
:0104CD00220C
:10068500300B44C20B0532C3E53294037480948069
:100695004035E4F532E5509538E5376480F8E54FA7
:1006A50064809850090550E550701C054F22D3E52C
:1006B500509538E5376480F8E54F6480984008E543
:0706C5005015507002154FA3
:0106CC00220B
:10078600C10AC10BC109024F001E024D00000249F9
:060796000000024B000010
:1006CD00054AE54A70020549E550454F7003C29150
:1006DD0022E55064C8454F7003D29122C3E54A9577
:1006ED0050E54F6480F8E5496480985003D291221B
:1006FD00C3E54A94C8E549648094805003C29122B1
:07070D00E4F549F54AD29121
:0107140022C2
:10071500054CE54C7002054BE54E454D7003C2B5E1
:1007250022E54E64C8454D7003D2B522C3E54C950C
:100735004EE54D6480F8E54B6480985003D2B522B0
:10074500C3E54C94C8E54B648094805003C2B52240
:07075500E4F54BF54CD2B5B1
:01075C00227A
:03000B0002087474
:10087400C0E0C0D075D000C0001207151206CDD25A
:0808840009D000D0D0D0E03211
:03001B0002001EC2
:05001E00D20AD20B32F2
:1008A0004389025389FE758AEC758CECD28CD2A9EF
:0308B000D2AF22A2
:0D08C500758BE0758DB1D28ED2ABD2AF2213
:030000000205F9FD
:0C05F900787FE4F6D8FD758150020640C2
:1004CE00BB010689828A83E0225002E722BBFE022C
:0904DE00E32289828A83E493225F
:1004E700EF8DF0A4A8F0CF8CF0A428CE8DF0A42E29
:0204F700FE22E3
:1004F900BC000BBE0029EF8DF084FFADF022E4CCE7
:10050900F875F008EF2FFFEE33FEEC33FCEE9DECAF
:10051900984005FCEE9DFE0FD5F0E9E4CEFD22EDF5
:10052900F8F5F0EE8420D21CFEADF075F008EF2F3F
:10053900FFED33FD4007985006D5F0F222C398FD30
:050549000FD5F0EA22CD
:10054E00C2D5EC30E709B2D5E4C39DFDE49CFCEEC8
:10055E0030E715B2D5E4C39FFFE49EFE1204F9C343
:10056E00E49DFDE49CFC80031204F930D507C3E43E
:06057E009FFFE49EFE2237
:10002600E518240CF8E60518227809300702780C42
:10003600E475F0011205C30204CE2000EB7F2ED238
:10004600008018EF540F2490D43440D4FF30040BB2
:10005600EF24BFB41A0050032461FFE519600215AE
:1000660019051CE51C7002051B30070D7809E4759F
:10007600F0011205C3EF0205B10208037403D207AB
:100086008003E4C207F5188B098A0A890BE4F5197F
:10009600F51BF51CE51960077F2012006180F575D8
:1000A6001AFFC201C200C202C203C205C206C208CA
:1000B60012002FFF700D3007057F00120072AF1C73
:1000C600AE1B22B4255FC2D5C20412002FFF24D076
:1000D600B40A00501A75F00A781930D50508B6FF2B
:1000E6000106C6A426F620D5047002D20380D924C0
:1000F600CFB41A00EF5004C2E5D204020272D20154
:1001060080C6D20080C0D20280BCD2D580BAD205C9
:1001160080B47F201200612002077401B5190040E7
:10012600F1120026FF12006102009AD208D2068060
:1001360095120026FB120026FA120026F94A4B7089
:100146000679437A037BFF20022EE519602A7E009A
:100156008E8275830012058460060EEE651A70F0B5
:10016600C2D5EBC0E0EAC0E0E9C0E0EE1202B9D0C9
:10017600E0F9D0E0FAD0E0FB1204CEFF60AAEBC0B3
:10018600E0EAC0E0E9C0E0120061D0E02401F9D065
:10019600E03400FAD0E0FBE51A0460DCD51AD98019
:1001A600877BFF7A0279B5D202809C79108002792A
:1001B60008C206C2088008D2D5790A8004790AC224
:1001C600D5E51A047002F51AE4FAFDFEFF120026C0
:1001D600FC7B08200113120026FD7B1030000A125A
:1001E6000026FE120026FF7B20EC3382D592D550E6
:1001F60013C3E43000069FFFE49EFEE42001039D46
:10020600FDE49CFCE4CBF8C201EC700CCFCECDCC67
:10021600E824F8F870F38017C3EF33FFEE33FEEDF2
:1002260033FDEC33FCEB33FB994002FB0FD8E9EBD3
:10023600300105F8D0E0C448B201C0E00AEC4D4EEA
:100246004F78207B0070C2EAB51A0040BCC0E012AD
:1002560002BBD0F0D0E0200104C4C0E0C4B201C0AB
:10026600F012004AD0F0D5F0EB02009A1205D30145
:10027600375301B15801084C01044201B54F01BD85
:0F0286004401BD49011D4301C35501A74601A70E
:100295004501A747036350010C2D01102E01332B97
:1002A500011423013120034C2A00CC480000012B06
:1002B5003F3F3F00790AA2D5200314300509B91044
:1002C500020404B9080104A2D52006025001042045
:1002D50002689202B519005034C0E07F203003193E
:1002E5007F30A20272067205500F120312C202C2BB
:1002F50006C205C2087F30800F300503E9C0E01251
:100305000061300503D0E0F9D0E0B519CC30051710
:100315007F30B9100C1200617F583004077F788058
:1003250003B908031200613002057F2D0200617FC9
:10033500202008F87F2B2006F322920280CF286E1A
:10034500756C6C2900D2011200263001F8C20178C3
:100355001930D50108F60200CC2D5043495812003A
:10036500262403B405004001E490035E9312005275
:0D037500743A120052D2037519040201B14E
:1006050002082AE493A3F8E493A34003F68001F2D9
:1006150008DFF48029E493A3F85407240CC8C333F6
:10062500C4540F4420C8834004F456800146F6DFC5
:10063500E4800B010204081020408090075DE47EF1
:10064500019360BCA3FF543F30E509541FFEE493BA
:10065500A360010ECF54C025E060A840B8E493A381
:10066500FAE493A3F8E493A3C8C582C8CAC583CAAC
:10067500F0A3C8C582C8CAC583CADFE9DEE780BE64
:01079C00005C
:10058400BB010CE58229F582E5833AF583E022502C
:1005940006E92582F8E622BBFE06E92582F8E22276
:0D05A400E58229F582E5833AF583E4932290
:1005B100BB010689828A83F0225002F722BBFE0129
:0205C100F32223
:1005C300FAE6FB0808E6F925F0F618E6CA3AF62239
:1005D300D083D082F8E4937012740193700DA3A3B7
:1005E30093F8740193F5828883E4737402936860CB
:0605F300EFA3A3A380DFCB
:10080300EFB40A07740D12080E740A309811A899F0
:10081300B8130CC2983098FDA899C298B811F63055
:0708230099FDC299F599222D
:00000001FF
