:10043E0012049012000E12047012048312000312A2
:0A044E00001E1201B512024680F5EF
:1003620002380032023A005008210000000000006A
:100372000000012900022A0000022C0000022E00C7
:10038200000130000231000001330002340000029B
:0303920036000032
:0B04900043BA8090FE00E4F0A3F022CD
:0D000E005391FD43920253B1DF43B2202213
:0700030075E68475E70F228A
:10001E00200103020117C201E5E630E016C3E50D2B
:10002E009450E50C6480948050227402250DF50DD9
:10003E00E48015D3E50D9400E50C64809480400CAB
:10004E0074FE250DF50D74FF350CF50CE52925E034
:10005E002421F8A60C08A60D0529E529C3940474DD
:10006E008094804037E4F529F52CF52DFFEFC394ED
:10007E0004748094805016EF25E02421F8E6FC08E5
:10008E00E6252DF52DEC352CF52C0F80E0AE2CAFA2
:10009E002D7C007D0412012A8E2C8F2DE52F24FE3F
:1000AE00FFE52E34FFFEC3E52D9FEE6480F8E52CB0
:1000BE006480984018E52F2402FFE4352EFED3E528
:1000CE002D9FEE6480F8E52C6480984037052BE573
:1000DE002B7002052AC394F4E52A9401402BE4F513
:1000EE002AF52BAE2CAF2DFC7D0A120118C37420FD
:1000FE009FFF74039EFE12012A8E388F39852C2E97
:09010E00852D2F22E4F52AF52BC2
:0101170022C5
:100246002002030202D5C2020530C3E530940374CE
:10025600809480407AE4F530D3E539953BE53A64FD
:1002660080F8E5386480984013D3E53B9400E53A7E
:10027600648094804006AE3AAF3B8004AE38AF3916
:10028600D3EF9450EE6480948040067E007F5080C9
:100296000FC3EF9401EE6480948050047E007F01CA
:1002A600C3E50F9FEE6480F8E50E6480985009055B
:1002B6000FE50F7002050E22D3E50F9FEE6480F85E
:0F02C600E50E6480984008E50F150F7002150EC5
:0102D5002206
:1001B500309026300034C2000532E5327002053138
:1001C500D39455E53164809480401F7534007535AE
:1001D500507531007532508011E532453160068524
:1001E5003134853235E4F531F532300353C203E558
:1001F5003724FEFFE53634FFFEC3E5359FEE648008
:10020500F8E5346480984018E5372402FFE4353674
:10021500FED3E5359FEE6480F8E534648098401D93
:100225000533C3E53394C8748094804013E4F533F3
:1002350085343A85353B85343685353722E4F533C3
:010245002296
:10039500C101C102C100C103020E0050020C005090
:0803A50002080000020A00003A
:1003AE000509E50970020508E50F450E7003C291B7
:1003BE0022E50F6450450E7003D29122C3E50995D4
:1003CE000FE50E6480F8E5086480985003D2912200
:1003DE00C3E5099450E508648094805003C29122CD
:0703EE00E4F508F509D291C6
:0103F50022E5
:1003F600050BE50B7002050AE50D450C7003C2B549
:1004060022E50D6450450C7003D2B522C3E50B9569
:100416000DE50C6480F8E50A6480985003D2B52295
:10042600C3E50B9450E50A648094805003C2B5225C
:07043600E4F50AF50BD2B555
:01043D00229C
:03000B0002045894
:10045800C0E0C0D075D000C0001203F61203AED2BF
:0804680000D000D0D0D0E0323A
:03001B0002049B41
:07049B00D201D202D20332AC
:100470004389025389FE758AEC758CECD28CD2A923
:03048000D2AF22D6
:0D048300758BE0758DB1D28ED2ABD2AF2259
:030000000202D623
:0C02D600787FE4F6D8FD75813B02031D23
:10011800EF8DF0A4A8F0CF8CF0A428CE8DF0A42EFB
:02012800FE22B5
:10012A00C2D5EC30E709B2D5E4C39DFDE49CFCEEF0
:10013A0030E715B2D5E4C39FFFE49EFE120160C307
:10014A00E49DFDE49CFC800312016030D507C3E402
:06015A009FFFE49EFE225F
:1002E20002043EE493A3F8E493A34003F68001F2F0
:1002F20008DFF48029E493A3F85407240CC8C3331D
:10030200C4540F4420C8834004F456800146F6DFEB
:10031200E4800B0102040810204080900362E47E16
:10032200019360BCA3FF543F30E509541FFEE493E0
:10033200A360010ECF54C025E060A840B8E493A3A7
:10034200FAE493A3F8E493A3C8C582C8CAC583CAD2
:10035200F0A3C8C582C8CAC583CADFE9DEE780BE8A
:0103AD00004F
:10016000BC000BBE0029EF8DF084FFADF022E4CC83
:10017000F875F008EF2FFFEE33FEEC33FCEE9DEC4C
:10018000984005FCEE9DFE0FD5F0E9E4CEFD22ED92
:10019000F8F5F0EE8420D21CFEADF075F008EF2FDC
:1001A000FFED33FD4007985006D5F0F222C398FDCD
:0501B0000FD5F0EA226A
:00000001FF
