:0F0458000A2300C8138827103A984650013D0028
:1003A700E53D25E0243EF8A60608A607E53DC394EB
:1003B700055004053D8003E4F53DE548C394055029
:0403C70002054822C1
:10038200E4FFEF25E0243EF8E6FC08E6250CF50C38
:10039200EC350BF50B0FBF05E9AE0BAF0C7C007D06
:0403A200051202241A
:0103A6002234
:10001E005391FD439202C291E4F533F5341203CBB2
:10002E0012041D1204031203597535FF7FFA1204D0
:10003E00487FFA1204487FFA1204487FFA8005209E
:10004E0090077F0112044880F67FFA1204487FFA67
:10005E001204487FFA1204487FFA1204487FFA12FB
:10006E0004487FFA1204487FFA1204487FFA1204F9
:10007E0048D2AFE4F50A3090080534E53470020535
:10008E00337F287E00120468050AE50AC3943240C5
:10009E00E5E53445337006C291C2AB80D6E4F53344
:1000AE00F534AF3CAE3B120324D2AB3002782001C4
:1000BE0075C202853121853222AE21AF227C067DAA
:1000CE00001202248F36E536D394044003753604AD
:1000DE00E535B4FF19853635E53625E02423F8E6F7
:1000EE00F53B08E6F53CFFAE3B1203248021E536D6
:1000FE00D395354006D200D2038014E536C395352C
:10010E005006D200C2038007C200E4F539F53AE585
:10011E0032F509E531F508AF0812000EAF091200ED
:10012E000EAF3612000E30001F7FFA120448053A49
:10013E00E53A70020539D39406E53994004009C2B8
:10014E0000E4F539F53AD201200103020081E4F50D
:10015E000AE50AC3946440030200817F64120448D6
:10016E00A2039204120279200103020081050A8083
:01017E00E0A0
:100279003004337464253CF53CE4353BF53BE53506
:100289007002D2ABAF3CAE3B120324E53625E02425
:1002990023F8E6FE08E6FFC3E53C9FE53B9E403AAE
:1002A900C20185363522749C253CF53C74FF353BEB
:1002B900F53BAF3CFE120324E53625E02423F8E69E
:1002C900FE08E6FFD3E53C9FE53B9E500DC2018544
:0B02D9003635E5367004D291C2AB222E
:1003590053A23F53B1FD43B202E598543F4440F5DF
:10036900984398105397EF438E01C2AC438E04759E
:09037900D7C875D6FE438E102290
:0A000E00C2998F993099FDC2992222
:1004350012020BFF600C12000E740129F9E43AFA5E
:0304450080EE2224
:1003CB0043B1C053B23F53B1DF43B220E4F5E675FE
:0C03DB00E71443E68043E60443E74022B9
:10041D00C28C5389F05389FC438E80D2A9D2B97511
:08042D008CFF758A10D28C22AD
:10040300C28ED2ABD2BB5389CF438E405389BF43F5
:0A0413008F02E4F58DF58BD28E22E6
:03000B000202E40A
:1002E400C0E0C0D0E5E620E004C2B5800AD2B5057E
:1002F4002EE52E7002052D0538E53870020537B459
:100304000019E537B44014753700753800852D3170
:10031400852E32752D00752E00D202D0D0D0E03259
:03001B000203E7F6
:1003E700C0E030910BC291E52FF58D85308B8009E8
:0C03F700D291E549F58D854A8BD0E032AB
:0F0448007D9B7C03ED1D70011C144C70F7DFF1E0
:010457002282
:0A046800EF1F70011E144E70F72202
:10032400D3EF940CEE944E40047E4E7F0CC3EF94B6
:1003340014EE940050047E007F14EF24E0FDEE34AC
:10034400B1FCC3E49FFFE49EC2AFF5498F4A8C2FF2
:040354008D30D2AF67
:010358002282
:0300000002017F7B
:0C017F00787FE4F6D8FD75814A0201C6C5
:10020B00BB010689828A83E0225002E722BBFE02F1
:09021B00E32289828A83E4932224
:10022400BC000BBE0029EF8DF084FFADF022E4CCBE
:10023400F875F008EF2FFFEE33FEEC33FCEE9DEC87
:10024400984005FCEE9DFE0FD5F0E9E4CEFD22EDCD
:10025400F8F5F0EE8420D21CFEADF075F008EF2F17
:10026400FFED33FD4007985006D5F0F222C398FD08
:050274000FD5F0EA22A5
:10018B0002001EE493A3F8E493A34003F68001F26C
:10019B0008DFF48029E493A3F85407240CC8C33375
:1001AB00C4540F4420C8834004F456800146F6DF44
:1001BB00E4800B0102040810204080900458E47E78
:1001CB00019360BCA3FF543F30E509541FFEE49339
:1001DB00A360010ECF54C025E060A840B8E493A300
:1001EB00FAE493A3F8E493A3C8C582C8CAC583CA2B
:1001FB00F0A3C8C582C8CAC583CADFE9DEE780BEE3
:010467000094
:00000001FF
